:100000000C943A000C9457000C9457000C94570031
:100010000C9457000C9457000C9457000C94570004
:100020000C9457000C9457000C9457000C945700F4
:100030000C9457000C9457000C9456080C945700DD
:100040000C9457000C9457000C9457000C945700D4
:100050000C9457000C9457000C9457000C945700C4
:100060000C9457000C9457006364696E6F7073753D
:1000700078585B0011241FBECFEFD8E0DEBFCDBFA4
:1000800014E0A0E0B1E0EAE0FBE202C005900D92CE
:10009000AC39B107D9F724E0ACE9B4E001C01D9256
:1000A000A33FB207E1F70E94890C0C9483150C94CE
:1000B0000000E0ECF0E080818823ECF78091C6003E
:1000C00090E008958A3041F4E0ECF0E0908195FFF3
:1000D000FDCF9DE09093C600E0ECF0E0908195FFAD
:1000E000FDCF8093C60080E090E008958093D30414
:1000F000882361F01F928F938DE091E09F938F93FF
:100100000E943D0F0F900F900F900F9008958093D5
:10011000D304882381F07F936F931F928F9384E29F
:1001200091E09F938F930E943D0F0F900F900F903F
:100130000F900F900F900895E4E6F0E090819B7F80
:100140009083662311F090E501C090E74C70282F52
:100150002370422B492B82FB882780F9229A259A0B
:10016000239A24982A9A8DBD4CBD8DB51F928F93EA
:1001700082E591E09F938F930E943D0F8CB51F9273
:100180008F938BE691E09F938F930E943D0F8DB7E5
:100190009EB708960FB6F8949EBF0FBE8DBF089508
:1001A000F8942A9881E08EBD00000DB407FEFDCFC3
:1001B0008DED8EBD00000DB407FEFDCF2A9A789418
:1001C0008EB580930C01982F991F9927991F9093B2
:1001D000C4040895CF93DF938091C40481115AC061
:1001E000C1E8D0E82FEF81EE94E0215080409040AC
:1001F000E1F700C00000F8942A98CEBD00000DB4CD
:1002000007FEFDCF1EBC00000DB407FEFDCF2A9AED
:1002100078948EB52FEF80E792E021508040904097
:10022000E1F700C00000F8942A98CEBD00000DB49C
:1002300007FEFDCFDEBD00000DB407FEFDCF2A9AFC
:1002400078948EB52FEF80E792E021508040904067
:10025000E1F700C00000F8942A98CEBD00000DB46C
:1002600007FEFDCFCEBD00000DB407FEFDCF2A9ADC
:1002700078948EB52FEF80E792E021508040904037
:10028000E1F700C000000E94D00080910C0181388D
:1002900009F0A8CF0E94D000813829F480E00E94A4
:1002A000760081E006C064E871E085E00E94870086
:1002B00080E0DF91CF9108950E94D0008091C40426
:1002C000811103C00E94EA00089580910C018138D9
:1002D00029F480E00E94760081E00895803829F5B5
:1002E000F8942A9881E88EBD00000DB407FEFDCF7A
:1002F00081E88EBD00000DB407FEFDCF2A9A7894E8
:100300008EB50E94D000813839F062EA71E085E054
:100310000E94870080E0089580E00E94760081E0DE
:10032000089585E38A95F1F700000E94D000813896
:10033000C1F781E008950E94D00080910C0180589F
:10034000823028F480E00E94760081E0089580E009
:100350000895CF93C82F0FC08FE891E00197F1F770
:1003600000C00000C11106C068EB71E080E10E948E
:10037000870005C0C1500E949B01882369F3CF917B
:100380000895CF93C82F82E30E94A901F8942A9878
:1003900081E88EBD00000DB407FEFDCFCEBD00008C
:1003A0000DB407FEFDCF2A9A78948EB5CF910895AB
:1003B000CF92DF92EF92FF926B017C0182E30E9469
:1003C000A901C701AA27BB27E9EBF4E08083D1820A
:1003D000C282F8942A9826E82EBD00000DB407FECC
:1003E000FDCF8EBD00000DB407FEFDCF2A9A789494
:1003F0008EB58091BA04F8942A9897E89EBD0000C3
:100400000DB407FEFDCF8EBD00000DB407FEFDCF7D
:100410002A9A78948EB58091BB04F8942A9898E82B
:100420009EBD00000DB407FEFDCF8EBD00000DB4D3
:1004300007FEFDCF2A9A78948EB5FF90EF90DF905B
:10044000CF900895853191055CF0E5EBF4E084E10F
:1004500081838FE0828381E0808387E8838335C056
:100460009C01225131092230310548F4E5EBF4E0DA
:1004700084E883838FE0818381E0808326C09C01B0
:100480002F5031092330310550F4E5EBF4E094E8C6
:100490009383818391E090838250828316C09C0174
:1004A0002F5F3F4F2F30310548F4E5EBF4E094E83F
:1004B0009383818310828F5F828307C0E5EBF4E032
:1004C000118284E8838310821282E5EBF4E080815C
:1004D00020E8829FC001112492819F70892BF8949B
:1004E0002A9899E89EBD00000DB407FEFDCF8EBD91
:1004F00000000DB407FEFDCF2A9A78948EB5809146
:10050000B804F8942A989AED9EBD00000DB407FE39
:10051000FDCF8EBD00000DB407FEFDCF2A9A789462
:100520008EB50895CF9320E1829FC0011124C62F7C
:10053000C82B82E30E94A901F8942A988AE88EBD0C
:1005400000000DB407FEFDCFCEBD00000DB407FEC8
:10055000FDCF2A9A78948EB5CF910895CF9390E2EB
:10056000699FB0011124C82FC62B82E30E94A90104
:10057000F8942A988CE88EBD00000DB407FEFDCFDC
:10058000CEBD00000DB407FEFDCF2A9A78948EB53B
:10059000CF9108951F93CF93DF93CDB7DEB7289700
:1005A0000FB6F894DEBF0FBECDBFE22F29833A838A
:1005B000142F4B835C83462F6D837E838F839887B4
:1005C000832F880F880F880F90E4E99F90011124F2
:1005D000282B422B110F110F412B152F110F142B0C
:1005E00082E30E94A901F8942A988DE98EBD00004B
:1005F0000DB407FEFDCF1EBD00000DB407FEFDCFFC
:100600002A9A78948EB545E34A95F1F70000F8945C
:100610002A988DE18EBD00000DB407FEFDCF8DED53
:100620008EBD00000DB407FEFDCF2A9A78942EB53A
:1006300091E080E0121301C090E0292F382F8E81C5
:1006400040E1849FC00111249F81990F990F990F58
:10065000892B9885990F990F892B982F967FF8945D
:100660002A988EE18EBD00000DB407FEFDCF8DED02
:100670008EBD00000DB407FEFDCF2A9A78948EB58A
:100680008370892BF8942A989EE99EBD00000DB4D2
:1006900007FEFDCF8EBD00000DB407FEFDCF2A9AE8
:1006A00078949EB5F8942A989EE19EBD00000DB402
:1006B00007FEFDCF9DED9EBD00000DB407FEFDCFF2
:1006C0002A9A78949EB5891711F02F5F3F4F232BFC
:1006D00031F062ED71E08CE00E94870003C080E0A1
:1006E0000E94760028960FB6F894DEBF0FBECDBFED
:1006F000DF91CF911F910895CF93C82F82E30E947D
:10070000A901F8942A9887EB8EBD00000DB407FE6E
:10071000FDCFCEBD00000DB407FEFDCF2A9A789420
:100720008EB5CF910895CF93C82F82E30E94A9017F
:10073000F8942A9881EB8EBD00000DB407FEFDCF22
:10074000CEBD00000DB407FEFDCF2A9A78948EB579
:10075000CF910895CF9320E2829FC0011124C62F2C
:10076000C82B82E30E94A901F8942A988BE88EBDD9
:1007700000000DB407FEFDCFCEBD00000DB407FE96
:10078000FDCF2A9A78948EB5CF9108958CEE91E0A2
:100790000E945A0F0E94EA00ECEBF4E0108291E014
:1007A000392F91831282592F938387E0782F858385
:1007B0001682978320E040E06091C00480E00E94B0
:1007C000CA0260EC80E00E94AE0260E070E089ED59
:1007D00090E00E94D8018AE00E947C0383E00E949E
:1007E000930369E081E00E9492028FEF9FEF0E94E5
:1007F00022026BE081E00E94AA038FE092E00E9457
:100800005A0F81E292E00E945A0F84E392E00E9424
:100810005A0F86E492E00E945A0F8DE592E00E9402
:100820005A0F8EE692E00E945A0F83E892E00E94EF
:100830005A0F8CE992E00E945A0F8AEA92E00E94D5
:100840005A0F8FEB92E00E945A0F8AED92E00E94BD
:100850005A0F87EE92E00E945A0F0895F8942A9852
:1008600091E19EBD00000DB407FEFDCF9DED9EBD44
:1008700000000DB407FEFDCF2A9A78949EB566233A
:1008800059F021E030E002C0220F331F8A95E2F7D1
:10089000922B9093A9040BC021E030E002C0220FFC
:1008A000331F8A95E2F7209592239093A90482E35F
:1008B0000E94A9018091A904F8942A9891E99EBD0B
:1008C00000000DB407FEFDCF8EBD00000DB407FE85
:1008D000FDCF2A9A78948EB58FE891E00197F1F7D1
:1008E00000C00000F8942A9881E18EBD00000DB48C
:1008F00007FEFDCF8DED8EBD00000DB407FEFDCFD0
:100900002A9A78948EB59091A904981731F064E0F2
:1009100073E083E00E948700089580E00E947600E3
:1009200008958FEF8093A904F8942A9881E98EBDE9
:1009300000000DB407FEFDCF8FEF8EBD00000DB49B
:1009400007FEFDCF2A9A78948EB58FE891E0019743
:10095000F1F700C00000F8942A9881E18EBD0000F4
:100960000DB407FEFDCF8DED8EBD00000DB407FE6A
:10097000FDCF2A9A78948EB59091A904981731F0FA
:100980006AE373E083E00E948700089580E00E949C
:1009900076000895F8942A9892E19EBD00000DB467
:1009A00007FEFDCF9DED9EBD00000DB407FEFDCFFF
:1009B0002A9A78942EB52093A80430E0A90102C0A9
:1009C000559547958A95E2F7CA018170089521E00F
:1009D00030E0082E02C0220F331F0A94E2F7F89489
:1009E0002A9892E99EBD00000DB407FEFDCF2EBDF2
:1009F00000000DB407FEFDCF2A9A78949EB595E3CA
:100A00009A95F1F70000F8942A9892E19EBD0000B3
:100A10000DB407FEFDCF9DED9EBD00000DB407FE99
:100A2000FDCF2A9A78942EB52093A80430E0082EA2
:100A300002C0359527950A94E2F720FF04C0825E34
:100A40000E947600089580E00E9476000895F89450
:100A50002A9882E98EBD00000DB407FEFDCF8FEF0E
:100A60008EBD00000DB407FEFDCF2A9A78948EB596
:100A7000F8942A9882E18EBD00000DB407FEFDCFE8
:100A80008DED8EBD00000DB407FEFDCF2A9A78943F
:100A90008EB58093A8048FE891E00197F1F700C02C
:100AA00000008091A804882321F083E00E94760052
:100AB000089580E00E94760008950E945C01809174
:100AC000D3041092D304882321F085E00E9476009D
:100AD0000895F8942A988DE08EBD00000DB407FEAD
:100AE000FDCF8DED8EBD00000DB407FEFDCF2A9A1F
:100AF00078948EB58093B404F8942A988EE08EBDD5
:100B000000000DB407FEFDCF8DED8EBD00000DB4CD
:100B100007FEFDCF2A9A78948EB58093B304F8949B
:100B20002A988EE08EBD00000DB407FEFDCF8DED3E
:100B30008EBD00000DB407FEFDCF2A9A78948EB5C5
:100B40008093B204F8942A9880E18EBD00000DB421
:100B500007FEFDCF8DED8EBD00000DB407FEFDCF6D
:100B60002A9A78948EB5F8942A9883E18EBD000075
:100B70000DB407FEFDCF8DED8EBD00000DB407FE58
:100B8000FDCF2A9A78948EB5F8942A9885E28EBD86
:100B900000000DB407FEFDCF8DED8EBD00000DB43D
:100BA00007FEFDCF2A9A78948EB51092B104109268
:100BB000B004F8942A9885E18EBD00000DB407FEBC
:100BC000FDCF8DED8EBD00000DB407FEFDCF2A9A3E
:100BD00078942EB58091B0049091B104822B9093BB
:100BE000B1048093B004F8942A9884E18EBD00008B
:100BF0000DB407FEFDCF8DED8EBD00000DB407FED8
:100C0000FDCF2A9A78942EB58091B0049091B104CA
:100C1000922B9093B1048093B0041092AF04109281
:100C2000AE04F8942A9887E18EBD00000DB407FE4B
:100C3000FDCF8DED8EBD00000DB407FEFDCF2A9ACD
:100C400078942EB58091AE049091AF04822B90934E
:100C5000AF048093AE04F8942A9886E18EBD00001C
:100C60000DB407FEFDCF8DED8EBD00000DB407FE67
:100C7000FDCF2A9A78942EB58091AE049091AF045E
:100C8000922B9093AF048093AE041092AD04109217
:100C9000AC04F8942A988EE18EBD00000DB407FED6
:100CA000FDCF8DED8EBD00000DB407FEFDCF2A9A5D
:100CB00078948EB5F8942A988FE18EBD00000DB41B
:100CC00007FEFDCF8DED8EBD00000DB407FEFDCFFC
:100CD0002A9A78942EB58091AC049091AD04822B21
:100CE0009093AD048093AC048FEF9FEF9093AB048F
:100CF0008093AA04F8942A9882E28EBD00000DB475
:100D000007FEFDCF8DED8EBD00000DB407FEFDCFBB
:100D10002A9A78948EB5F8942A9883E28EBD0000C2
:100D20000DB407FEFDCF8DED8EBD00000DB407FEA6
:100D3000FDCF2A9A78948EB50895CF9382E30E94CE
:100D4000A9018091D3041092D304882329F085E06F
:100D50000E947600C0E014C0F8942A988DE08EBD01
:100D600000000DB407FEFDCF8DED8EBD00000DB46B
:100D700007FEFDCF2A9A7894CEB580E00E947600D7
:100D80008C2FCF910895CF93C82F82E30E94A901A1
:100D90008091D3041092D304882321F085E00E942F
:100DA00076002EC0C093B404F8942A988DE88EBDC6
:100DB00000000DB407FEFDCFCEBD00000DB407FE50
:100DC000FDCF2A9A78948EB5F8942A988DE08EBD3E
:100DD00000000DB407FEFDCF8DED8EBD00000DB4FB
:100DE00007FEFDCF2A9A78948EB59091B404981797
:100DF00021F083E00E94760003C080E00E9476002C
:100E0000CF910895CF93C82F82E30E94A9018091CA
:100E1000D3041092D304882321F085E00E94760049
:100E20002EC0C093B304F8942A988EE88EBD0000BB
:100E30000DB407FEFDCFCEBD00000DB407FEFDCF03
:100E40002A9A78948EB5F8942A988EE08EBD000088
:100E50000DB407FEFDCF8DED8EBD00000DB407FE75
:100E6000FDCF2A9A78948EB59091B304981721F00B
:100E700083E00E94760003C080E00E947600CF915C
:100E80000895CF93C82F82E30E94A9018091D304D3
:100E90001092D304882321F085E00E9476002EC0B2
:100EA000C093B204F8942A988FE88EBD00000DB468
:100EB00007FEFDCFCEBD00000DB407FEFDCF2A9A80
:100EC00078948EB5F8942A988FE08EBD00000DB40A
:100ED00007FEFDCF8DED8EBD00000DB407FEFDCFEA
:100EE0002A9A78948EB59091B204981721F083E0F5
:100EF0000E94760003C080E00E947600CF910895A2
:100F0000CF93DF93D82FC92F82E30E94A90180914C
:100F1000D3041092D304882321F085E00E94760048
:100F200038C09C2F9370F8942A988EE18EBD0000F3
:100F30000DB407FEFDCF8DED8EBD00000DB407FE94
:100F4000FDCF2A9A78948EB58C7F982BF8942A98A6
:100F50008EE98EBD00000DB407FEFDCF9EBD0000E2
:100F60000DB407FEFDCF2A9A78948EB5F8942A988E
:100F70008FE98EBD00000DB407FEFDCFDEBD000081
:100F80000DB407FEFDCF2A9A78948EB580E00E94BA
:100F90007600DF91CF910895CF93DF93D82FC92F9B
:100FA00082E30E94A9018091D3041092D304882384
:100FB00021F08EE00E94760023C0F8942A9881EAFE
:100FC0008EBD00000DB407FEFDCFDEBD00000DB4E8
:100FD00007FEFDCF2A9A78948EB5F8942A9880EA75
:100FE0008EBD00000DB407FEFDCFCEBD00000DB4D8
:100FF00007FEFDCF2A9A78948EB580E00E94760095
:10100000DF91CF910895CF93C82F0E945C0180910A
:10101000D3041092D304882321F085E00E94760047
:1010200013C0F8942A9882EA8EBD00000DB407FE22
:10103000FDCFCEBD00000DB407FEFDCF2A9A7894F7
:101040008EB580E00E947600CF910895CF930E94E4
:101050005C018091D3041092D304882329F085E0A9
:101060000E947600C0E014C0F8942A9883E28EBDF6
:1010700000000DB407FEFDCF8DED8EBD00000DB458
:1010800007FEFDCF2A9A7894CEB580E00E947600C4
:101090008C2FCF910895F8946091D4047091D50469
:1010A0008091D6049091D704789408951F920F925E
:1010B0000FB60F9211240F931F932F933F934F93CB
:1010C0005F936F937F938F939F93AF93BF93EF93B0
:1010D000FF938091D4049091D504A091D604B0914F
:1010E000D7040196A11DB11D8093D4049093D5041B
:1010F000A093D604B093D7040E944B080091A40497
:101100001091A5042091A6043091A704DC01CB0125
:10111000801B910BA20BB30B81369A4EA105B10532
:10112000E8F00E944B086093A4047093A504809398
:10113000A6049093A7048091DC049091DD04A09113
:10114000DE04B091DF040196A11DB11D8093DC0483
:101150009093DD04A093DE04B093DF04FF91EF9140
:10116000BF91AF919F918F917F916F915F914F91BF
:101170003F912F911F910F910F900FBE0F901F90D5
:101180001895E4E6F0E080818F7D8083F89414BCAC
:1011900083E085BD16BC82E080936E009AEF97BD18
:1011A00085BB1092A4041092A5041092A60410927C
:1011B000A704789408954F925F926F927F928F92D6
:1011C0009F92AF92BF92CF92EF92FF920F931F9395
:1011D000CF93DF93CDB7DEB728970FB6F894DEBF75
:1011E0000FBECDBF29833A834B835C838F8398875F
:1011F00027013801172F022F82E30E94A9011D3019
:1012000008F04DC0163008F44DC0011105C085EF3F
:10121000810F823068F408C0013051F41C3041F471
:1012200003C01CE001C01CE081E08D8302C016E019
:101230001D8229813A814B815C816D81712F8F8163
:1012400098850E94CA028091D3041092D304882307
:1012500021F08FE00E9476002EC0C301B2010E94EF
:10126000D8018C2D90E00E942202C5010E94CC077B
:101270009092AB048092AA04163039F480E00E9468
:1012800093038CE00E947C0306C080E00E949303DD
:101290008AE00E947C0380E00E9476000CC001116D
:1012A00005C0BFCF002319F216E0B6CF013009F414
:1012B000BACF1CE0BDCF28960FB6F894DEBF0FBEA4
:1012C000CDBFDF91CF911F910F91FF90EF90CF9005
:1012D000BF90AF909F908F907F906F905F904F9056
:1012E0000895EF92FF920F931F93CF93DF93CDB7A3
:1012F000DEB728970FB6F894DEBF0FBECDBF2983A7
:101300003A834B835C838F8398877D3098F5763062
:10131000A0F1211105C085EF870F823068F408C065
:10132000213051F47C3041F403C07CE001C07CE00A
:1013300081E08D8302C076E01D8229813A814B8154
:101340005C816D818F8198850E94CA028091D3044F
:101350001092D304882321F08FE00E94760015C0FC
:10136000C8010E94CC07C7010E94800780E00E944C
:1013700076000BC0211105C0D8CF2223E1F276E020
:10138000CFCF2130A1F27CE0D7CF28960FB6F894CA
:10139000DEBF0FBECDBFDF91CF911F910F91FF90A8
:1013A000EF9008950E9427050E94910460E083E079
:1013B0000E942E04F8942A9880EC8EBD00000DB493
:1013C00007FEFDCF80E48EBD00000DB407FEFDCF0B
:1013D0002A9A78948EB583E80E94C10101C000006A
:1013E00083E00E94CA048823D1F383E00E94E704CB
:1013F00008951F93CF93DF93EC0182E390E00E9466
:101400009B018091D3041092D304882321F085E0BE
:101410000E947600A0C01D811A5F0E9426088117D5
:1014200028F46FE473E086E00E948700812F0E9419
:10143000030880E00E94020780E00E94C3060E9429
:101440005C018881F8942A9890E89EBD00000DB454
:1014500007FEFDCF8EBD00000DB407FEFDCF2A9A1A
:1014600078948EB58A81F8942A9890E89EBD000001
:101470000DB407FEFDCF8EBD00000DB407FEFDCFFD
:101480002A9A78948EB58981F8942A9890E89EBD1E
:1014900000000DB407FEFDCF8EBD00000DB407FEA9
:1014A000FDCF2A9A78948EB58B81F8942A9890E88B
:1014B0009EBD00000DB407FEFDCF8EBD00000DB433
:1014C00007FEFDCF2A9A78948EB58D81F8942A98DC
:1014D00090E89EBD00000DB407FEFDCF8EBD00005C
:1014E0000DB407FEFDCF2A9A78948EB58C81F894BE
:1014F0002A9890E89EBD00000DB407FEFDCF8EBD7A
:1015000000000DB407FEFDCF2A9A78948EB58D8128
:101510002E813F81F89490E89EBD2A980DB407FE75
:10152000FDCF882371F0F901815090E00196280FDA
:10153000391F81918EBD0DB407FEFDCFE217F30771
:10154000C1F778942A9A6091AA047091AB0480E064
:1015500090E00E94D209DF91CF911F910895CF931F
:10156000DF93EC0182E30E94A9018091D3041092E1
:10157000D304882321F085E00E94760049C00E94B0
:1015800027050E94910460E087E00E942E0460E03D
:1015900086E00E942E0460E085E00E942E0460E058
:1015A00084E00E942E04F8942A9880EC8EBD0000FE
:1015B0000DB407FEFDCF80E48EBD00000DB407FE24
:1015C000FDCF2A9A78948EB580E00E94C3060E94CF
:1015D0009D068111F9CF80E00E9441070E949D067F
:1015E0008111F9CFCE010E94800785E090E09093B1
:1015F0000B0180930A010E944B086093D8047093FA
:10160000D9048093DA049093DB0486E80E94C10138
:10161000DF91CF9108958F929F92AF92BF92CF9218
:10162000DF92EF92FF92CF936C010E94AF0A0E946B
:101630004B084B015C01E12CF12C86E00E94CA04AE
:1016400081110DC00E944B08DC01CB01881999095A
:10165000AA09BB098C159D05AE05BF0570F387E08F
:101660000E94CA04F82E882359F087E00E94E704FC
:1016700082E090E090930B0180930A01C0E004C1E6
:1016800086E00E94CA04C82F882309F4FDC0809117
:10169000BF04882329F184E00E94CA04C82F811165
:1016A0000BC081E090E090930B0180930A018AE7E0
:1016B00093E00E945A0FE8C085E00E94CA04882384
:1016C00079F085E00E94E70481E090E090930B01BF
:1016D00080930A018AE793E00E945A0FCF2DD4C06D
:1016E0008091A2049091A304009711F00E94B40E7F
:1016F000F8942A9883E18EBD00000DB407FEFDCF5B
:101700008DED8EBD00000DB407FEFDCF2A9A7894B2
:101710002EB5F8942A981EBC00000DB407FEFDCF2C
:101720008DED8EBD00000DB407FEFDCF2A9A789492
:101730008EB580939C04F8942A981EBC00000DB4CA
:1017400007FEFDCF8DED8EBD00000DB407FEFDCF71
:101750002A9A78948EB580939E04F8942A981EBC99
:1017600000000DB407FEFDCF8DED8EBD00000DB461
:1017700007FEFDCF2A9A78948EB580939D04F89445
:101780002A981EBC00000DB407FEFDCF8DED8EBD66
:1017900000000DB407FEFDCF2A9A78948EB5809391
:1017A0009F04F8942A981EBC00000DB407FEFDCFDC
:1017B0008DED8EBD00000DB407FEFDCF2A9A789402
:1017C0008EB58093A104F8942A981EBC00000DB435
:1017D00007FEFDCF8DED8EBD00000DB407FEFDCFE1
:1017E0002A9A78948EB5ECE9F4E08483C5818C2F35
:1017F00090E030E0AC014A5F5F4F24173507B1F04D
:1018000081E993E00E945A0F86E00E94E70484E099
:101810000E94E70481E090E090930B0180930A011D
:101820001092A3041092A204CF2D2EC00E941C0E71
:10183000AC01F8941EBC2A9800000DB407FEFDCF41
:10184000CC2389F0FA01C1502C2F30E02F5F3F4F9D
:10185000240F351F1EBC0DB407FEFDCF9EB591931E
:10186000E217F307B9F778942A9A5093A3044093A8
:10187000A20486E00E94E70484E00E94E70410923C
:101880000B0110920A01C1E08C2FCF91FF90EF90D5
:10189000DF90CF90BF90AF909F908F9008951F934F
:1018A000CF93DF93182FD62FC42F88E090E00E94AB
:1018B0001C0EFC0180EB828385E483831083D1833B
:1018C000C483158217821682CF01DF91CF911F91B9
:1018D0000895FF920F931F93CF93DF93F82E062F57
:1018E000EA01122F88E090E00E941C0EFC0181EDBD
:1018F0008283F08285E4838304838BEA818315836A
:10190000D783C683CF01DF91CF911F910F91FF90B5
:101910000895CF93DF931F92CDB7DEB71092C50025
:1019200087E68093C40088E18093C1008EE08093B5
:10193000C200E5ECF4E082E690E09187808789E5DB
:1019400090E09387828783E0838315861486ADEECB
:10195000B4E01396FC93EE931297ED93FC9340E062
:1019600061E080E00E949C000E94C1081092A304E4
:101970001092A20480E3898386EF93E00E945A0FBD
:10198000CE0101969F938F938DEB93E09F938F935E
:101990000E948A0F0F900F900F900F900F2EF2E47D
:1019A000DF2EF02D0F2EFDEDEF2EF02D00EC13E0CD
:1019B000F8942A98DEBC00000DB407FEFDCFEEBC03
:1019C00000000DB407FEFDCF2A9A7894FEB41F9252
:1019D000FF921F930F930E943D0F2FEF81EE94E033
:1019E000215080409040E1F700C000000F900F9020
:1019F0000F900F90A2E2FA12DBCF86EF93E00E94E5
:101A00005A0FFE0131967F01FF93EF930DEB13E028
:101A10001F930F930E948A0F0E94C60386EF93E0E4
:101A20000E945A0FFF92EF921F930F930E948A0F0A
:101A30000E945D0588ED93E00E945A0FFF92EF929D
:101A40001F930F930E948A0F0F2EF4EF8F2E99246D
:101A50009394F02D0F2EF0E9AF2EBB24B394F02D0C
:101A60000F2EF5E0CF2EF02DE12CF12C09ED10E03A
:101A70002091BC043091BD044091BE045091BF043C
:101A80006091C0047091C1048091C2049091C3041C
:101A90000E94DB080F2EF4EFEF2EFF24F394F02DBD
:101AA00000E911E02091BC043091BD044091BE04D6
:101AB0005091BF046091C0047091C1048091C20430
:101AC0009091C3040E94710963E283E00E94AE0218
:101AD0008FE094E00E945A0F8DE090E00E94220275
:101AE0008EE294E00E945A0F0FB6F894DEBF0FBE4C
:101AF000CDBF10E00F2EFAE0AF2EF1E0BF2EF02D9B
:101B00000F2EFDEBEF2EF3E0FF2EF02D6894442412
:101B100042F8552453940F2EFCE98F2EF4E09F2EAB
:101B2000F02D0F2EFBE76F2EF4E07F2EF02D0F2E01
:101B3000FCE82F2EF4E03F2EF02D111122C08BE394
:101B400094E00E945A0F06E011E068011F930F9382
:101B5000FF92EF920E948A0F0F5F1F4FD6018C9168
:101B600090E00E94530F0F900F900F900F90A016CF
:101B7000B10659F78AE090E00E94530F4092E804C2
:101B8000152D88EE93E00E940B0B80910A01909135
:101B90000B01892B91F6F4018181803B71F28281E6
:101BA000803D79F42091E80446E051E0648183812E
:101BB0000E94690C0E94F90985E594E00E945A0F81
:101BC000152DD40112968C911297823D09F0B5CF54
:101BD00014964C91149760EB13968C910E944F0CC5
:101BE0000E94F90986E694E00E945A0F7F926F9254
:101BF0000E943D0F0F900F9000E010E0D401169668
:101C0000ED91FC911797E00FF11F808190E00E9409
:101C1000530F0F5F1F4F0430110581F7F4018381CB
:101C20001F928F933F922F920E943D0F0F900F9023
:101C30000F900F9010E081CF0F931F93CF93DF93FE
:101C40008230910510F482E090E0E091EB04F09195
:101C5000EC0420E030E0A0E0B0E0309719F14081E2
:101C600051810281138148175907C8F084179507DD
:101C700069F4109731F012960C93129713961C93F7
:101C800027C00093EB041093EC0422C0211531050A
:101C900019F04217530718F49A01BD01EF01DF0153
:101CA000F801DBCF21153105F9F0281B390B243061
:101CB000310580F48A819B816115710521F0FB015A
:101CC0009383828304C09093EC048093EB04FE0121
:101CD000329644C0FE01E20FF31F8193919322508C
:101CE0003109398328833AC02091E9043091EA040C
:101CF000232B41F420910201309103013093EA0437
:101D00002093E90420910001309101012115310552
:101D100041F42DB73EB74091040150910501241BB9
:101D2000350BE091E904F091EA04E217F307A0F41F
:101D30002E1B3F0B2817390778F0AC014E5F5F4F21
:101D40002417350748F04E0F5F1F5093EA04409365
:101D5000E9048193919302C0E0E0F0E0CF01DF91CC
:101D6000CF911F910F910895CF93DF93009709F4BE
:101D700081C0FC01329713821282A091EB04B091D2
:101D8000EC04109781F420813181820F931F209100
:101D9000E9043091EA042817390751F5F093EA0471
:101DA000E093E90467C0ED0120E030E0CE17DF07E3
:101DB00040F44A815B819E0141155105F1F0EA0131
:101DC000F5CFD383C28340815181840F951FC817FB
:101DD000D90759F488819981840F951F02969183C0
:101DE00080838A819B81938382832115310529F425
:101DF000F093EC04E093EB043DC0E901FB83EA833C
:101E000049915991C40FD51FEC17FD0761F48081EA
:101E10009181840F951F0296E901998388838281BD
:101E200093819B838A83E0E0F0E012968D919C91F0
:101E30001397009719F0FD01DC01F7CF8D919C916C
:101E400011979D012E5F3F4F820F931F2091E90450
:101E50003091EA042817390769F4309729F4109271
:101E6000EC041092EB0402C013821282B093EA04D5
:101E7000A093E904DF91CF910895A0E0B0E0E3E4FE
:101E8000FFE00C945C15AE014B5F5F4FFA0161916E
:101E90007191AF018091EF049091F0040E94A00F26
:101EA000E2E00C9478156091EF047091F0040E94C8
:101EB000961408950F931F93CF93DF93E091EF044F
:101EC000F091F004238121FF1BC08C01D0E0C0E021
:101ED000F80181918F016091EF047091F004DB01B2
:101EE0001896ED91FC911997882331F00995892B6B
:101EF00079F3DFEFCFEFECCF8AE00995892B19F06A
:101F00008FEF9FEF02C08D2F9C2FDF91CF911F91FC
:101F10000F910895A0E0B0E0E0E9FFE00C945C15BB
:101F2000AE014B5F5F4FFA0161917191AF018091FA
:101F3000ED049091EE040E941D13E2E00C947815DC
:101F4000ABE0B0E0E6EAFFE00C944C156C017B01DD
:101F50008A01FC0117821682838181FFCCC1CE01E8
:101F600001963C01F6019381F70193FD859193FF62
:101F700081917F01882309F4BAC1853239F493FD38
:101F8000859193FF81917F01853229F4B60190E01C
:101F90000E949614E7CF912C212C312CFFE1F315F0
:101FA000D8F08B3279F038F4803279F08332A1F4B2
:101FB000232D20611DC08D3261F0803369F4232D03
:101FC000216016C0832D8260382EE32DE4603E2E02
:101FD0002AC0F32DF8601DC037FC2DC020ED280F5E
:101FE0002A3040F08E32B9F436FC81C1232D2064B2
:101FF000322E19C036FE06C08AE0989E200D1124AC
:10200000922E11C0EAE02E9E200D1124222EF32DD7
:10201000F0623F2E08C08C3621F4832D8068382E64
:1020200002C0883641F4F70193FD859193FF8191B9
:102030007F018111B3CF982F9F7D9554933028F461
:102040000C5F1F4F9FE399830DC0833631F08337B8
:1020500071F0833509F059C021C0F801808189836E
:102060000E5F1F4F88248394912C530113C02801C5
:10207000F2E04F0E511CF801A080B18036FE03C083
:10208000692D70E002C06FEF7FEFC5010E944D1413
:102090004C018201F32DFF773F2E16C0280122E06C
:1020A000420E511CF801A080B18036FE03C0692D9C
:1020B00070E002C06FEF7FEFC5010E9442144C0137
:1020C000F32DF0683F2E820133FC1BC0822D90E07F
:1020D00088169906B0F4B60180E290E00E9496144A
:1020E0002A94F4CFF50137FC859137FE81915F0189
:1020F000B60190E00E94961421102A9421E0821AE1
:1021000091088114910471F7E8C0843611F0893682
:1021100041F5F80137FE07C06081718182819381AA
:102120000C5F1F4F08C060817181072E000C880B67
:10213000990B0E5F1F4FF32DFF763F2E97FF09C0BF
:1021400090958095709561957F4F8F4F9F4FF06868
:102150003F2E2AE030E0A3010E94EB14882E86185F
:1021600045C0853731F4232D2F7EB22E2AE030E092
:1021700025C0932D997FB92E8F36C1F018F488357C
:1021800079F0B5C0803719F0883721F0B0C0E92F59
:10219000E061BE2EB4FE0DC0FB2DF460BF2E09C061
:1021A00034FE0AC0292F2660B22E06C028E030E097
:1021B00005C020E130E002C020E132E0F801B7FEC6
:1021C00007C060817181828193810C5F1F4F06C0BF
:1021D0006081718180E090E00E5F1F4FA3010E943B
:1021E000EB14882E8618FB2DFF773F2E36FE0DC090
:1021F000232D2E7FA22E891458F434FE0BC032FCFE
:1022000009C0832D8E7EA82E05C0B82CA32C03C038
:10221000B82C01C0B92CA4FE0FC0FE01E80DF11DC1
:102220008081803321F49A2D997EA92E09C0A2FEC7
:1022300006C0B394B39404C08A2D867809F0B39491
:10224000A3FC11C0A0FE06C0B21488F4280C922C86
:102250009B180EC0B21460F4B60180E290E00E94B8
:102260009614B394F7CFB21418F42B1802C0982C1C
:10227000212CA4FE10C0B60180E390E00E949614C9
:10228000A2FE17C0A1FC03C088E790E002C088E569
:1022900090E0B6010CC08A2D867859F0A1FE02C0EC
:1022A0008BE201C080E2A7FC8DE2B60190E00E94C3
:1022B0009614891438F4B60180E390E00E949614D5
:1022C0009A94F7CF8A94F301E80DF11D8081B6014D
:1022D00090E00E9496148110F5CF222009F442CE9E
:1022E000B60180E290E00E9496142A94F6CFF6019F
:1022F0008681978102C08FEF9FEF2B96E2E10C94CD
:10230000681520FD09C0FC0123FD05C022FF02C0A5
:102310007383628351834083089544FD17C046FD53
:1023200017C0AB01BC01DA01FB01AA0FBB1FEE1FF6
:10233000FF1F1094D1F74A0F5B1F6E1F7F1FCB0149
:10234000BA01660F771F881F991F09C033E001C0CB
:1023500034E0660F771F881F991F3150D1F7620F45
:10236000711D811D911D08950F931F93CF93DF93CE
:102370008C01C8010E945814EC0197FD08C00E940E
:102380002E14892BB1F7B801CE010E94D214CE01D0
:10239000DF91CF911F910F9108958F929F92AF92ED
:1023A000BF92EF92FF920F931F93CF93DF938C0115
:1023B000D62F7A01B22E0E9458149C0133272B325B
:1023C000310531F02D32310561F48B2D8068B82E46
:1023D000D15011F480E068C0C8010E94581497FDE4
:1023E000F9CFCB2DCD7F2B2D207309F58033F9F458
:1023F000AA24AA94AD0E09F443C0C8010E9458143F
:1024000097FD3EC09C012F7D33272835310549F4C7
:10241000C264D250A9F1C8010E94581497FF07C0A6
:102420002FC0B6FE02C0C26001C0C261DA2D812C8D
:10243000912C540120ED280F283080F0C4FF04C0F7
:10244000B8010E94D21419C02A3040F0C6FFF8CF5C
:102450002F7D3FEE320F363098F727504C2FC501B5
:10246000B4010E948D114B015C01C260D15059F042
:10247000C8010E94581497FFDDCFC1FD04C0AACF48
:10248000812C912C5401C7FF08C0B094A094909463
:102490008094811C911CA11CB11C2C2FB501A4019E
:1024A000C7010E94811181E0DF91CF911F910F91AF
:1024B000FF90EF90BF90AF909F908F900895A0E213
:1024C000B0E0E5E6F2E10C944F155C01962E7A013E
:1024D000F9018E010F5F1F4F680180E2D8011D9244
:1024E0008A95E9F7D50113968C9080E090E0612CF5
:1024F000712C30E061E070E083FC259183FE219136
:102500008F01522E211103C080E090E092C02E3541
:1025100011F4009751F1432F50E0481759073CF44C
:102520002D3559F12D3219F4772009F103C07720A8
:1025300009F46AC0452D469546954695D601A40FE7
:10254000B11D452D47708B0102C0000F111F4A9528
:10255000E2F7A8015C91452B4C93651459F0561491
:1025600010F45394E7CF5A94E5CF31E004C07724B8
:10257000739401C0712C0196BFCF772019F08E8122
:1025800080628E83311103C08824839417C0F601C2
:102590009E012F5D3F4F8081809581932E173F07CD
:1025A000D1F7F2CFE114F10429F0D7018C93F701B0
:1025B00031967F019A94812C9920F9F0C5010E94EF
:1025C000581497FD18C0FC01FF2723E0F595E79507
:1025D0002A95E1F7EC0DFD1D208130E0AC0147703C
:1025E000552702C0359527954A95E2F720FDDACFA9
:1025F000B5010E94D214811087CFE114F10411F0CB
:10260000D7011C92C80115C0422F469546954695A4
:10261000D601A40FB11D422F47708B0102C0000FDD
:10262000111F4A95E2F7A8015C91452B4C93622E4D
:10263000A2CFA096EFE00C946B15A0E0B0E0E3E22F
:10264000F3E10C944F156C01EB015A01FC01178268
:102650001682512CF601E380FE01E3FC8591E3FE36
:102660008191182FEF01882309F4EEC090E00E94B9
:102670002E14892B21F0C6010E94B411EBCF153224
:1026800041F4FE01E3FC1591E3FE1191EF011532D7
:1026900081F4C6010E94581497FDD4C0412F50E028
:1026A0009C01332724173507A9F2B6010E94D214E2
:1026B000CBC01A3239F4E3FC1591E3FE1191EF011E
:1026C00001E001C000E0F12C20ED210F2A3080F460
:1026D00002606F2D70E080E090E040E20E948D117A
:1026E000F62EFE01E3FC1591E3FE1191EF01ECCF14
:1026F00001FF03C0F11003C0A7C0FF24FA941836ED
:1027000019F01C3651F010C0FE01E3FC1591E3FEF8
:102710001191EF01183641F408600460FE01E3FCFA
:102720001591E3FE1191EF01112309F48DC0612F82
:1027300070E088E690E00E943714892B09F484C089
:1027400000FD07C0F50180809180C50102965C0103
:1027500002C0812C912C1E3651F4F601468157811E
:1027600060E070E0202FC4010E94811173CF133606
:10277000A9F401FD02C0FF24F394C6010E9458147D
:1027800097FD60C08114910429F0F4018083C40195
:1027900001964C01FA94F110F0CF50C01B3559F45A
:1027A0009E01A4016F2DC6010E945F12EC01892BCE
:1027B00009F044C03EC0C6010E94B41197FD42C05A
:1027C0001F3661F128F4143639F1193651F128C059
:1027D000133771F0153701F123C08114910429F0EA
:1027E000F4016082C40101964C01FA94FF2071F05B
:1027F000C6010E9458143C0197FD08C00E942E1487
:10280000892B59F3B601C3010E94D214811491049B
:10281000A9F0F401108212C0006203C0006101C07F
:102820000064202FA4016F2DC6010E94CD118111DB
:1028300005C0F6018381807329F406C000FD0ACF2C
:10284000539408CF552019F0852D90E002C08FEFEA
:102850009FEFCDB7DEB7EFE00C946B1591110C94A0
:102860004915803219F089508550C8F70895FC0148
:102870000590061621F00020D9F7C0010895319780
:10288000CF010895FC010590615070400110D8F708
:10289000809590958E0F9F1F0895FC0161507040A8
:1028A00001900110D8F7809590958E0F9F1F089585
:1028B000CF93DF93EC012B8120FF33C026FF0AC0AA
:1028C0002F7B2B838E819F8101969F838E838A81AC
:1028D00090E029C022FF0FC0E881F9818081082E95
:1028E000000C990B009719F420622B831AC03196C3
:1028F000F983E8830EC0EA85FB85099597FF09C037
:102900002B81019611F080E201C080E1822B8B8344
:1029100008C02E813F812F5F3F4F3F832E83992731
:1029200002C08FEF9FEFDF91CF9108950F931F9318
:10293000CF93DF93FB01238121FD03C08FEF9FEF36
:102940002CC022FF16C04681578124813581421751
:10295000530744F4A081B1819D012F5F3F4F318324
:1029600020838C93268137812F5F3F4F37832683C7
:1029700014C08B01EC01FB010084F185E02D099569
:10298000892BE1F6D80116968D919C9117970196A7
:1029900017969C938E931697CE01DF91CF911F913E
:1029A0000F910895FB01238120FF12C026FD10C066
:1029B0008F3F3FEF930761F082832F7D2064238355
:1029C000268137812150310937832683992708953D
:1029D0008FEF9FEF0895FA01AA27283051F1203197
:1029E00081F1E8946F936E7F6E5F7F4F8F4F9F4FA3
:1029F000AF4FB1E03ED0B4E03CD0670F781F891FE5
:102A00009A1FA11D680F791F8A1F911DA11D6A0FB2
:102A1000711D811D911DA11D20D009F468943F9165
:102A20002AE0269F11243019305D3193DEF6CF0164
:102A30000895462F4770405D4193B3E00FD0C9F72A
:102A4000F6CF462F4F70405D4A3318F0495D31FD97
:102A50004052419302D0A9F7EACFB4E0A6959795EA
:102A6000879577956795BA95C9F7009761057105C0
:102A700008959B01AC010A2E06945795479537950A
:102A80002795BA95C9F7620F731F841F951FA01D64
:102A900008959927882708952F923F924F925F9229
:102AA0006F927F928F929F92AF92BF92CF92DF925E
:102AB000EF92FF920F931F93CF93DF93CDB7DEB7C3
:102AC000CA1BDB0B0FB6F894DEBF0FBECDBF099457
:102AD0002A88398848885F846E847D848C849B84AE
:102AE000AA84B984C884DF80EE80FD800C811B81BC
:102AF000AA81B981CE0FD11D0FB6F894DEBF0FBEEB
:0A2B0000CDBFED010895F894FFCF5A
:102B0A000000F304200030313233060001455252EE
:102B1A004F523A204572726F7220636F6465203A91
:102B2A00202564004552524F523A204572726F7204
:102B3A0020636F6465203A20253032782C20457254
:102B4A00726F72206D657373616765203A20257311
:102B5A000A0053657474696E6773206F6620535058
:102B6A005352203A20253032780A0053657474692A
:102B7A006E6773206F662053504352203A202530E7
:102B8A0032780A0043616E6E6F7420736574204C4C
:102B9A006F5261206D6F64652066726F6D204653B7
:102BAA004B0043616E6E6F74207365742076616C9E
:102BBA006964204649464F007365742076616C69E2
:102BCA00642073746174652074696D6564206F751F
:102BDA0074006D6F64656D2076616C756573206E27
:102BEA006F74206D61746863696E67004C6F52611F
:102BFA00204D6F64656D20696E697469616C697ACC
:102C0A006174696F6E20737461727465642E004D0D
:102C1A006F64656D2053657474696E6773203A201A
:102C2A000042616E645769647468203A2031323513
:102C3A004B487A00436F64696E672072617465203D
:102C4A003A20342F3500486561646572206D6F64DF
:102C5A0065203A206578706C6963697400506179FF
:102C6A006C6F616420435243203A204F4E007370C8
:102C7A0072656164696E6720666163746F72203A77
:102C8A00203700545820636F6E74696E756F7573C0
:102C9A00206D6F6465203A204F4646004147432025
:102CAA006175746F203A204F4E004C4E41204761A7
:102CBA00696E20426F6F7374203A204F4646004374
:102CCA00617272696572204672657175656E6379A3
:102CDA00203A203836384D487A00506F776572208E
:102CEA003A202D316442004C6F526120696E69743A
:102CFA0069616C697A6174696F6E2066696E69735D
:102D0A0068656400466C616773204D61736B73205C
:102D1A00617265206E6F7420657175616C00436124
:102D2A006E6E6F7420636C65617220616C6C2066D4
:102D3A006C6167206D61736B730043616E6E6F74B3
:102D4A002073657420616C6C20666C616773005037
:102D5A0061636B65742053697A65206C617267657B
:102D6A0072207468616E206D617820616C6C6F7777
:102D7A006564206C656E677468004572726F723A9A
:102D8A00205061636B657420636F72727570742E64
:102D9A00005761726E696E673A204C656E67746897
:102DAA00204D69736D61746368205761726E696E34
:102DBA00672E0041434B2073656E742E0025630015
:102DCA004C6F726127732076657273696F6E206922
:102DDA007320253032780A004649464F20726567CB
:102DEA006973746572732073796E6320636F6D7093
:102DFA006C6574652E0A507265737320456E74652E
:102E0A007220746F20636F6E74696E75652E004C44
:102E1A004E4120424F4F5354203A204F4E2C204CC3
:102E2A004E41204741494E203A204D415800506FAB
:102E3A00776572203A2031336442004B4559524536
:102E4A0051554553543A3A20456E746572206120B3
:102E5A006B65792E004B4559207061636B65742050
:102E6A0053656E742E006B657920757064617465A4
:102E7A002061636B2073656E642E004B4559555073
:102E8A00444154453A3A206B65793D00202C6465EB
:0C2E9A00766963653D253032780A00003F
:00000001FF
