:100000000C9434000C9451000C9451000C94510049
:100010000C947D0E0C9451000C9451000C945100E2
:100020000C9451000C9451000C9451000C9451000C
:100030000C9451000C9451000C945B080C945100EA
:100040000C9451000C9451000C9451000C945100EC
:100050000C9451000C9451000C9451000C945100DC
:100060000C9451000C94510011241FBECFEFD8E026
:10007000DEBFCDBF14E0A0E0B1E0E6EFF7E202C0E2
:1000800005900D92AE3CB107D9F725E0AEECB4E097
:1000900001C01D92A832B207E1F70E94A70E0C948E
:1000A000F9130C940000E0ECF0E080818823ECF779
:1000B0008091C60090E008958A3041F4E0ECF0E0D1
:1000C000908195FFFDCF9DE09093C600E0ECF0E0BD
:1000D000908195FFFDCF8093C60080E090E0089569
:1000E00080930805882361F01F928F9383E191E04C
:1000F0009F938F930E94E4100F900F900F900F909A
:10010000089580930805882381F07F936F931F9251
:100110008F938BE291E09F938F930E94E4100F9056
:100120000F900F900F900F900F900895E4E6F0E07D
:1001300090819B7F9083662311F090E501C090E74A
:100140004C70282F2370422B492B82FB882780F983
:10015000229A259A239A24982A9A8DBD4CBD8DB552
:100160001F928F9389E591E09F938F930E94E410F3
:100170008CB51F928F9382E791E09F938F930E949B
:10018000E4108DB79EB708960FB6F8949EBF0FBEC9
:100190008DBF0895F8942A9881E08EBD00000DB4BB
:1001A00007FEFDCF8DED8EBD00000DB407FEFDCF27
:1001B0002A9A78948EB580931201982F991F9927C7
:1001C000991F9093F9040895CF93DF938091F904D8
:1001D00081115AC0C1E8D0E82FEF81EE94E02150A0
:1001E00080409040E1F700C00000F8942A98CEBD0E
:1001F00000000DB407FEFDCF1EBC00000DB407FECD
:10020000FDCF2A9A78948EB52FEF80E792E02150A7
:1002100080409040E1F700C00000F8942A98CEBDDD
:1002200000000DB407FEFDCFDEBD00000DB407FEDB
:10023000FDCF2A9A78948EB52FEF80E792E0215077
:1002400080409040E1F700C00000F8942A98CEBDAD
:1002500000000DB407FEFDCFCEBD00000DB407FEBB
:10026000FDCF2A9A78948EB52FEF80E792E0215047
:1002700080409040E1F700C000000E94CA008091D9
:100280001201813809F0A8CF0E94CA00813829F4F0
:1002900080E00E94700081E006C06BE871E085E0BC
:1002A0000E94810080E0DF91CF9108950E94CA00F2
:1002B0008091F904811103C00E94E40008958091A7
:1002C0001201813829F480E00E94700081E00895D5
:1002D000803829F5F8942A9881E88EBD00000DB485
:1002E00007FEFDCF81E88EBD00000DB407FEFDCFF7
:1002F0002A9A78948EB50E94CA00813839F069EA4A
:1003000071E085E00E94810080E0089580E00E9415
:10031000700081E0089585E38A95F1F700000E945E
:10032000CA008138C1F781E008950E94CA00809117
:1003300012018058823028F480E00E94700081E031
:10034000089580E00895CF93C82F0FC08FE891E003
:100350000197F1F700C00000C11106C06FEB71E01A
:1003600080E10E94810005C0C1500E949501882350
:1003700069F3CF910895CF93C82F82E30E94A30120
:10038000F8942A9881E88EBD00000DB407FEFDCFD9
:10039000CEBD00000DB407FEFDCF2A9A78948EB52D
:1003A000CF910895CF92DF92EF92FF926B017C0183
:1003B00082E30E94A301C701AA27BB27EEEEF4E067
:1003C0008083D182C282F8942A9826E82EBD00004C
:1003D0000DB407FEFDCF8EBD00000DB407FEFDCFAE
:1003E0002A9A78948EB58091EF04F8942A9897E829
:1003F0009EBD00000DB407FEFDCF8EBD00000DB404
:1004000007FEFDCF2A9A78948EB58091F004F89477
:100410002A9898E89EBD00000DB407FEFDCF8EBD62
:1004200000000DB407FEFDCF2A9A78948EB5FF9098
:10043000EF90DF90CF900895853191055CF0EAEE62
:10044000F4E084E181838FE0828381E0808387E828
:10045000838335C09C01225131092230310548F493
:10046000EAEEF4E084E883838FE0818381E0808397
:1004700026C09C012F5031092330310550F4EAEE9B
:10048000F4E094E89383818391E0908382508283A7
:1004900016C09C012F5F3F4F2F30310548F4EAEE24
:1004A000F4E094E89383818310828F5F828307C096
:1004B000EAEEF4E0118284E8838310821282EAEE8D
:1004C000F4E0808120E8829FC001112492819F7016
:1004D000892BF8942A9899E89EBD00000DB407FE78
:1004E000FDCF8EBD00000DB407FEFDCF2A9A789493
:1004F0008EB58091ED04F8942A989AED9EBD000087
:100500000DB407FEFDCF8EBD00000DB407FEFDCF7C
:100510002A9A78948EB50895CF9320E1829FC001E6
:100520001124C62FC82B82E30E94A301F8942A98B5
:100530008AE88EBD00000DB407FEFDCFCEBD0000E1
:100540000DB407FEFDCF2A9A78948EB5CF91089509
:10055000CF9390E2699FB0011124C82FC62B82E38C
:100560000E94A301F8942A988CE88EBD00000DB477
:1005700007FEFDCFCEBD00000DB407FEFDCF2A9AC9
:1005800078948EB5CF9108951F93CF93DF93CDB715
:10059000DEB728970FB6F894DEBF0FBECDBFE22FAF
:1005A00029833A83142F4B835C83462F6D837E838C
:1005B0008F839887832F880F880F880F90E4E99F97
:1005C00090011124282B422B110F110F412B152FB5
:1005D000110F142B82E30E94A301F8942A988DE94D
:1005E0008EBD00000DB407FEFDCF1EBD00000DB492
:1005F00007FEFDCF2A9A78948EB545E34A95F1F728
:100600000000F8942A988DE18EBD00000DB407FE1D
:10061000FDCF8DED8EBD00000DB407FEFDCF2A9AF3
:1006200078942EB591E080E0121301C090E0292F5C
:10063000382F8E8140E1849FC00111249F81990F42
:10064000990F990F892B9885990F990F892B982FBE
:10065000967FF8942A988EE18EBD00000DB407FEB7
:10066000FDCF8DED8EBD00000DB407FEFDCF2A9AA3
:1006700078948EB58370892BF8942A989EE99EBD54
:1006800000000DB407FEFDCF8EBD00000DB407FEC7
:10069000FDCF2A9A78949EB5F8942A989EE19EBD43
:1006A00000000DB407FEFDCF9DED9EBD00000DB412
:1006B00007FEFDCF2A9A78949EB5891711F02F5F17
:1006C0003F4F232B31F069ED71E08CE00E948100F7
:1006D00003C080E00E94700028960FB6F894DEBF39
:1006E0000FBECDBFDF91CF911F910895CF93C82F3B
:1006F00082E30E94A301F8942A9887EB8EBD000044
:100700000DB407FEFDCFCEBD00000DB407FEFDCF3A
:100710002A9A78948EB5CF910895CF93C82F82E30B
:100720000E94A301F8942A9881EB8EBD00000DB4BD
:1007300007FEFDCFCEBD00000DB407FEFDCF2A9A07
:1007400078948EB5CF910895CF9320E2829FC00117
:100750001124C62FC82B82E30E94A301F8942A9883
:100760008BE88EBD00000DB407FEFDCFCEBD0000AE
:100770000DB407FEFDCF2A9A78948EB5CF910895D7
:1007800083EF91E00E9401110E94E400E1EFF4E0A8
:10079000108291E0392F91831282592F938387E041
:1007A000782F85831682978320E040E06091F504DE
:1007B00080E00E94C40260EC80E00E94A80260E039
:1007C00070E089ED90E00E94D2018AE00E947603F9
:1007D00083E00E948D0369E081E00E948C028FEF2C
:1007E0009FEF0E941C026BE081E00E94A40386E15F
:1007F00092E00E94011188E292E00E9401118BE3D5
:1008000092E00E9401118DE492E00E94011184E6C1
:1008100092E00E94011185E792E00E9401118AE8AE
:1008200092E00E94011183EA92E00E94011181EBA3
:1008300092E00E94011186EC92E00E94011181EE8B
:1008400092E00E9401118EEE92E00E940111089543
:10085000F8942A9891E19EBD00000DB407FEFDCFEB
:100860009DED9EBD00000DB407FEFDCF2A9A789441
:100870009EB5662359F021E030E002C0220F331FFD
:100880008A95E2F7922B9093DE040BC021E030E0D2
:1008900002C0220F331F8A95E2F72095922390938E
:1008A000DE0482E30E94A3018091DE04F8942A987A
:1008B00091E99EBD00000DB407FEFDCF8EBD000086
:1008C0000DB407FEFDCF2A9A78948EB58FE891E09B
:1008D0000197F1F700C00000F8942A9881E18EBDDD
:1008E00000000DB407FEFDCF8DED8EBD00000DB4F0
:1008F00007FEFDCF2A9A78948EB59091DE04981762
:1009000031F06BE073E083E00E948100089580E0A5
:100910000E94700008958FEF8093DE04F8942A9867
:1009200081E98EBD00000DB407FEFDCF8FEF8EBDB7
:1009300000000DB407FEFDCF2A9A78948EB58FE89B
:1009400091E00197F1F700C00000F8942A9881E146
:100950008EBD00000DB407FEFDCF8DED8EBD0000F5
:100960000DB407FEFDCF2A9A78948EB59091DE04DF
:10097000981731F061E473E083E00E9481000895EC
:1009800080E00E9470000895F8942A9892E19EBD3C
:1009900000000DB407FEFDCF9DED9EBD00000DB41F
:1009A00007FEFDCF2A9A78942EB52093DD0430E01F
:1009B000A90102C0559547958A95E2F7CA01817051
:1009C000089521E030E0082E02C0220F331F0A9460
:1009D000E2F7F8942A9892E99EBD00000DB407FE54
:1009E000FDCF2EBD00000DB407FEFDCF2A9A7894EE
:1009F0009EB595E39A95F1F70000F8942A9892E154
:100A00009EBD00000DB407FEFDCF9DED9EBD000014
:100A10000DB407FEFDCF2A9A78942EB52093DD04FD
:100A200030E0082E02C0359527950A94E2F720FFA2
:100A300004C0825E0E947000089580E00E947000F1
:100A40000895F8942A9882E98EBD00000DB407FE3F
:100A5000FDCF8FEF8EBD00000DB407FEFDCF2A9AAB
:100A600078948EB5F8942A9882E18EBD00000DB47A
:100A700007FEFDCF8DED8EBD00000DB407FEFDCF4E
:100A80002A9A78948EB58093DD048FE891E00197DF
:100A9000F1F700C000008091DD04882321F083E09D
:100AA0000E947000089580E00E94700008950E94E6
:100AB00056018091080510920805882321F085E0F1
:100AC0000E9470000895F8942A988DE08EBD000071
:100AD0000DB407FEFDCF8DED8EBD00000DB407FEF9
:100AE000FDCF2A9A78948EB58093E904F8942A98D9
:100AF0008EE08EBD00000DB407FEFDCF8DED8EBDE6
:100B000000000DB407FEFDCF2A9A78948EB580932D
:100B1000E804F8942A988EE08EBD00000DB407FE1C
:100B2000FDCF8DED8EBD00000DB407FEFDCF2A9ADE
:100B300078948EB58093E704F8942A9880E18EBD6E
:100B400000000DB407FEFDCF8DED8EBD00000DB48D
:100B500007FEFDCF2A9A78948EB5F8942A9883E1FF
:100B60008EBD00000DB407FEFDCF8DED8EBD0000E3
:100B70000DB407FEFDCF2A9A78948EB5F8942A9882
:100B800085E28EBD00000DB407FEFDCF8DED8EBD5C
:100B900000000DB407FEFDCF2A9A78948EB510920E
:100BA000E6041092E504F8942A9885E18EBD0000D1
:100BB0000DB407FEFDCF8DED8EBD00000DB407FE18
:100BC000FDCF2A9A78942EB58091E5049091E604A1
:100BD000822B9093E6048093E504F8942A9884E1AC
:100BE0008EBD00000DB407FEFDCF8DED8EBD000063
:100BF0000DB407FEFDCF2A9A78942EB58091E504B6
:100C00009091E604922B9093E6048093E504109271
:100C1000E4041092E304F8942A9887E18EBD000062
:100C20000DB407FEFDCF8DED8EBD00000DB407FEA7
:100C3000FDCF2A9A78942EB58091E3049091E40434
:100C4000822B9093E4048093E304F8942A9886E13D
:100C50008EBD00000DB407FEFDCF8DED8EBD0000F2
:100C60000DB407FEFDCF2A9A78942EB58091E30447
:100C70009091E404922B9093E4048093E304109207
:100C8000E2041092E104F8942A988EE18EBD0000EF
:100C90000DB407FEFDCF8DED8EBD00000DB407FE37
:100CA000FDCF2A9A78948EB5F8942A988FE18EBD5C
:100CB00000000DB407FEFDCF8DED8EBD00000DB41C
:100CC00007FEFDCF2A9A78942EB58091E104909189
:100CD000E204822B9093E2048093E1048FEF9FEF74
:100CE0009093E0048093DF04F8942A9882E28EBD0A
:100CF00000000DB407FEFDCF8DED8EBD00000DB4DC
:100D000007FEFDCF2A9A78948EB5F8942A9883E24C
:100D10008EBD00000DB407FEFDCF8DED8EBD000031
:100D20000DB407FEFDCF2A9A78948EB50895CF931F
:100D300082E30E94A3018091080510920805882390
:100D400029F085E00E947000C0E014C0F8942A9851
:100D50008DE08EBD00000DB407FEFDCF8DED8EBD84
:100D600000000DB407FEFDCF2A9A7894CEB580E03E
:100D70000E9470008C2FCF910895CF93C82F82E3EB
:100D80000E94A3018091080510920805882321F094
:100D900085E00E9470002EC0C093E904F8942A9860
:100DA0008DE88EBD00000DB407FEFDCFCEBD000066
:100DB0000DB407FEFDCF2A9A78948EB5F8942A9840
:100DC0008DE08EBD00000DB407FEFDCF8DED8EBD14
:100DD00000000DB407FEFDCF2A9A78948EB590914D
:100DE000E904981721F083E00E94700003C080E0BE
:100DF0000E947000CF910895CF93C82F82E30E9484
:100E0000A3018091080510920805882321F085E050
:100E10000E9470002EC0C093E804F8942A988EE8CF
:100E20008EBD00000DB407FEFDCFCEBD00000DB499
:100E300007FEFDCF2A9A78948EB5F8942A988EE012
:100E40008EBD00000DB407FEFDCF8DED8EBD000000
:100E50000DB407FEFDCF2A9A78948EB59091E804E0
:100E6000981721F083E00E94700003C080E00E9488
:100E70007000CF910895CF93C82F82E30E94A30101
:100E80008091080510920805882321F085E00E94D2
:100E900070002EC0C093E704F8942A988FE88EBDA6
:100EA00000000DB407FEFDCFCEBD00000DB407FE5F
:100EB000FDCF2A9A78948EB5F8942A988FE08EBD4B
:100EC00000000DB407FEFDCF8DED8EBD00000DB40A
:100ED00007FEFDCF2A9A78948EB59091E704981773
:100EE00021F083E00E94700003C080E00E94700047
:100EF000CF910895CF93DF93D82FC92F82E30E941B
:100F0000A3018091080510920805882321F085E04F
:100F10000E94700038C09C2F9370F8942A988EE13C
:100F20008EBD00000DB407FEFDCF8DED8EBD00001F
:100F30000DB407FEFDCF2A9A78948EB58C7F982B3E
:100F4000F8942A988EE98EBD00000DB407FEFDCFFF
:100F50009EBD00000DB407FEFDCF2A9A78948EB591
:100F6000F8942A988FE98EBD00000DB407FEFDCFDE
:100F7000DEBD00000DB407FEFDCF2A9A78948EB531
:100F800080E00E947000DF91CF910895CF93DF93AE
:100F9000D82FC92F82E30E94A301809108051092E7
:100FA0000805882321F08EE00E94700023C0F89489
:100FB0002A9881EA8EBD00000DB407FEFDCFDEBD8C
:100FC00000000DB407FEFDCF2A9A78948EB5F894F0
:100FD0002A9880EA8EBD00000DB407FEFDCFCEBD7D
:100FE00000000DB407FEFDCF2A9A78948EB580E0FC
:100FF0000E947000DF91CF910895CF93C82F0E9477
:1010000056018091080510920805882321F085E09B
:101010000E94700013C0F8942A9882EA8EBD0000E6
:101020000DB407FEFDCFCEBD00000DB407FEFDCF11
:101030002A9A78948EB580E00E947000CF9108952E
:10104000CF930E94560180910805109208058823CD
:1010500029F085E00E947000C0E014C0F8942A983E
:1010600083E28EBD00000DB407FEFDCF8DED8EBD79
:1010700000000DB407FEFDCF2A9A7894CEB580E02B
:101080000E9470008C2FCF910895F8946091110503
:10109000709112058091130590911405789408952C
:1010A000F8946091090570910A0580910B05909163
:1010B0000C05789408951F920F920FB60F92112489
:1010C0000F931F932F933F934F935F936F937F9350
:1010D0008F939F93AF93BF93EF93FF9380910905F5
:1010E00090910A05A0910B05B0910C050196A11DE8
:1010F000B11D8093090590930A05A0930B05B09349
:101100000C050E9450080091D9041091DA04209136
:10111000DB043091DC04DC01CB01801B910BA20BC2
:10112000B30B81369A4EA105B105E8F00E94500834
:101130006093D9047093DA048093DB049093DC0409
:101140008091110590911205A0911305B09114059D
:101150000196A11DB11D8093110590931205A093D6
:101160001305B0931405FF91EF91BF91AF919F913B
:101170008F917F916F915F914F913F912F911F912F
:101180000F910F900FBE0F901F901895E4E6F0E0BE
:1011900080818F7D8083F89414BC83E085BD16BC6C
:1011A00082E080936E009AEF97BD85BB1092D904C0
:1011B0001092DA041092DB041092DC047894089503
:1011C0004F925F926F927F928F929F92AF92BF9257
:1011D000CF92EF92FF920F931F93CF93DF93CDB7F0
:1011E000DEB728970FB6F894DEBF0FBECDBF2983B8
:1011F0003A834B835C838F83988727013801172FAD
:10120000022F82E30E94A3011D3008F04DC016306A
:1012100008F44DC0011105C085EF810F823068F4DC
:1012200008C0013051F41C3041F403C01CE001C07F
:101230001CE081E08D8302C016E01D8229813A8185
:101240004B815C816D81712F8F8198850E94C402D2
:101250008091080510920805882321F08FE00E94F4
:1012600070002EC0C301B2010E94D2018C2D90E00B
:101270000E941C02C5010E94C6079092E004809261
:10128000DF04163039F480E00E948D038CE00E9468
:10129000760306C080E00E948D038AE00E947603F8
:1012A00080E00E9470000CC0011105C0BFCF002378
:1012B00019F216E0B6CF013009F4BACF1CE0BDCF69
:1012C00028960FB6F894DEBF0FBECDBFDF91CF9149
:1012D0001F910F91FF90EF90CF90BF90AF909F9094
:1012E0008F907F906F905F904F900895EF92FF9254
:1012F0000F931F93CF93DF93CDB7DEB728970FB629
:10130000F894DEBF0FBECDBF29833A834B835C8345
:101310008F8398877D3098F57630A0F1211105C034
:1013200085EF870F823068F408C0213051F47C309B
:1013300041F403C07CE001C07CE081E08D8302C009
:1013400076E01D8229813A814B815C816D818F819C
:1013500098850E94C4028091080510920805882390
:1013600021F08FE00E94700015C0C8010E94C607DE
:10137000C7010E947A0780E00E9470000BC0211113
:1013800005C0D8CF2223E1F276E0CFCF2130A1F201
:101390007CE0D7CF28960FB6F894DEBF0FBECDBF46
:1013A000DF91CF911F910F91FF90EF9008950E94D0
:1013B00021050E948B0460E083E00E942804F894D9
:1013C0002A9880EC8EBD00000DB407FEFDCF80E4AE
:1013D0008EBD00000DB407FEFDCF2A9A78948EB51D
:1013E00083E80E94BB0101C0000083E00E94C404A6
:1013F0008823D1F383E00E94E10408951F93CF93E3
:10140000DF93EC0182E390E00E9495018091080552
:1014100010920805882321F085E00E947000A0C08A
:101420001D811A5F0E942008811728F466E573E089
:1014300086E00E948100812F0E94FD0780E00E94CB
:10144000FC0680E00E94BD060E9456018881F89447
:101450002A9890E89EBD00000DB407FEFDCF8EBD1A
:1014600000000DB407FEFDCF2A9A78948EB58A81CC
:10147000F8942A9890E89EBD00000DB407FEFDCFB9
:101480008EBD00000DB407FEFDCF2A9A78948EB56C
:101490008981F8942A9890E89EBD00000DB407FE5B
:1014A000FDCF8EBD00000DB407FEFDCF2A9A7894C3
:1014B0008EB58B81F8942A9890E89EBD00000DB4FB
:1014C00007FEFDCF8EBD00000DB407FEFDCF2A9AAA
:1014D00078948EB58D81F8942A9890E89EBD00008E
:1014E0000DB407FEFDCF8EBD00000DB407FEFDCF8D
:1014F0002A9A78948EB58C81F8942A9890E89EBDAB
:1015000000000DB407FEFDCF8EBD00000DB407FE38
:10151000FDCF2A9A78948EB58D812E813F81F894E3
:1015200090E89EBD2A980DB407FEFDCF882371F088
:10153000F901815090E00196280F391F81918EBDED
:101540000DB407FEFDCFE217F307C1F778942A9A8E
:101550006091DF047091E00480E090E00E94D70980
:10156000DF91CF911F910895CF93DF93EC0182E338
:101570000E94A3018091080510920805882321F09C
:1015800085E00E94700049C00E9421050E948B04E2
:1015900060E087E00E94280460E086E00E94280462
:1015A00060E085E00E94280460E084E00E94280456
:1015B000F8942A9880EC8EBD00000DB407FEFDCF94
:1015C00080E48EBD00000DB407FEFDCF2A9A78940A
:1015D0008EB580E00E94BD060E9497068111F9CF6A
:1015E00080E00E943B070E9497068111F9CFCE014F
:1015F0000E947A0785E090E090931101809310019A
:101600000E94500860930D0570930E0580930F059E
:101610009093100586E80E94BB01DF91CF91089559
:101620008F929F92AF92BF92CF92DF92EF92FF92F2
:10163000CF936C010E94B40A0E9450084B015C01D8
:10164000E12CF12C86E00E94C40481110DC00E949F
:101650005008DC01CB0188199909AA09BB098C152E
:101660009D05AE05BF0570F387E00E94C404F82E07
:10167000882359F087E00E94E10482E090E0909393
:10168000110180931001C0E004C186E00E94C404EF
:10169000C82F882309F4FDC08091F404882329F120
:1016A00084E00E94C404C82F81110BC081E090E047
:1016B000909311018093100181E893E00E94011141
:1016C000E8C085E00E94C404882379F085E00E9488
:1016D000E10481E090E0909311018093100181E892
:1016E00093E00E940111CF2DD4C08091D704909136
:1016F000D804009711F00E945B10F8942A9883E1B7
:101700008EBD00000DB407FEFDCF8DED8EBD000037
:101710000DB407FEFDCF2A9A78942EB5F8942A9836
:101720001EBC00000DB407FEFDCF8DED8EBD000088
:101730000DB407FEFDCF2A9A78948EB58093D1041C
:10174000F8942A981EBC00000DB407FEFDCF8DED65
:101750008EBD00000DB407FEFDCF2A9A78948EB599
:101760008093D304F8942A981EBC00000DB407FEA1
:10177000FDCF8DED8EBD00000DB407FEFDCF2A9A82
:1017800078948EB58093D204F8942A981EBC0000F9
:101790000DB407FEFDCF8DED8EBD00000DB407FE2C
:1017A000FDCF2A9A78948EB58093D404F8942A9821
:1017B0001EBC00000DB407FEFDCF8DED8EBD0000F8
:1017C0000DB407FEFDCF2A9A78948EB58093D60487
:1017D000F8942A981EBC00000DB407FEFDCF8DEDD5
:1017E0008EBD00000DB407FEFDCF2A9A78948EB509
:1017F000E1EDF4E08483C5818C2F90E030E0AC0112
:101800004A5F5F4F24173507B1F088E993E00E94E3
:10181000011186E00E94E10484E00E94E10481E07D
:1018200090E090931101809310011092D8041092CF
:10183000D704CF2D2EC00E94C30FAC01F8941EBC5C
:101840002A9800000DB407FEFDCFCC2389F0FA01E1
:10185000C1502C2F30E02F5F3F4F240F351F1EBC8F
:101860000DB407FEFDCF9EB59193E217F307B9F7CC
:1018700078942A9A5093D8044093D70486E00E9423
:10188000E10484E00E94E104109211011092100121
:10189000C1E08C2FCF91FF90EF90DF90CF90BF9061
:1018A000AF909F908F900895CF93DF93D82FC62F3E
:1018B00088E090E00E94C30FFC0180ED8283D0831A
:1018C00080EA818315821782168285E48383C4832C
:1018D000CF01DF91CF910895EF92FF921F93CF93A5
:1018E000DF93C82F162F7A01D22F88E090E00E9454
:1018F000C30FFC0182ED828380EA8183F782E68256
:101900001483D583C08385E48383CF01DF91CF9196
:101910001F91FF90EF900895579A569A559A549AAE
:10192000389839983A988BB18F708BB988B18760A5
:1019300088B91092680087E080936C0008955F92E8
:101940006F927F928F929F92AF92BF92CF92DF92CF
:10195000EF92FF920F931F93CF93DF938BB1806F22
:101960008BB9000044E050E0612C712CC0E0D0E065
:1019700060E070E0E0E0F0E0812C912C5401839471
:1019800001E0512C8BB175016401042E04C0CC0C14
:10199000DD1CEE1CFF1C0A94D2F79C2D9095892328
:1019A0008BB9000020E030E0DA01149786B190E0B6
:1019B000022E02C0959587950A94E2F780FD1FC01C
:1019C0001FEF89EF90E0115080409040E1F700C098
:1019D000000086B190E0022E02C0959587950A948A
:1019E000E2F780FD07C0309741F4ED013901E02FA7
:1019F000F52D05C0602F752D02C0602F752D2F5F4E
:101A00003F4F2330310591F68BB1C82ACBB8000087
:101A10004F5F5F4F4830510509F0B4CF8BB18F70E5
:101A20008BB9000081E090E0672B11F080E090E03E
:101A3000E823F923EF2B59F0CE01880F991FC80F27
:101A4000D91FCE53DB4FC60DD71D888101C080E062
:101A5000DF91CF911F910F91FF90EF90DF90CF908A
:101A6000BF90AF909F908F907F906F905F90089500
:101A7000CF930E949F0CC82F8823D9F30E949F0CFC
:101A8000C817E1F35B9A2FE789EA93E02150804081
:101A90009040E1F700C000005B988C2FCF91089533
:101AA000EF92FF920F931F93CF93DF936091CE0439
:101AB00080910A010E94540CEC0184EC93E00E9496
:101AC0000111CE010E94FE09000001ED14E08FEF2C
:101AD00093E00E94100B80911001909111018130D0
:101AE000910531F08230910559F0892B81F710C0B2
:101AF00084EC93E00E940111CE010E94FE09E7CF21
:101B000084EC93E00E940111CE010E94FE09DFCF18
:101B1000D80111968C9111978B3AC9F614969C9125
:101B200014978C819813D3CF12968C91813D79F6BE
:101B30008DED93E09F938F930E94E4108091D604E3
:101B400080931D050F900F90882301F10F2EFBE06D
:101B5000EF2EF1E0FF2EF02DC0E0D0E001ED14E01B
:101B6000D8011696ED91FC911797EC0FFD1F80811F
:101B7000F70181937F0190E00E94FA102196D8012D
:101B800015968C9190E0C817D90754F38AE090E03D
:101B90000E94FA106091CE046F5F6093CE04209192
:101BA0001D054BE051E080910A010E946C0CEC0194
:101BB0008DEE93E00E940111CE010E94FE0900000B
:101BC00001ED14E08FEF93E00E94100B8091100163
:101BD000909111018130910531F08230910559F0D9
:101BE000892B81F710C08DEE93E00E940111CE0188
:101BF0000E94FE09E7CF8DEE93E00E940111CE0115
:101C00000E94FE09DFCFF8018281803BD9F69481E2
:101C10008C819813D7CF85E094E00E940111DF9169
:101C2000CF911F910F91FF90EF900895EF92FF9247
:101C30001F93CF93DF9300D000D0CDB7DEB781E202
:101C400094E09F938F930E94E41080E390E39A8343
:101C500089839C838B830F900F90E12CF12C0E9441
:101C6000380D182F823581F08534C9F090E00E943C
:101C7000FA10E1E0F0E0EC0FFD1FEE0DFF1D108308
:101C80008FEFE81AF80A07C081E0E81AF10888E047
:101C900090E00E94FA1085E0E816F10400F3FE01DE
:101CA0003196ABE0B1E0AE014B5F5F4F21E0919127
:101CB0008D91981302C0217001C020E0E417F50750
:101CC000B1F7222349F089E394E00E94011181E0F9
:101CD0008093D004449A07C08AE494E00E940111E2
:101CE0001092D004459A0F900F900F900F90DF91B3
:101CF000CF911F91FF90EF9008951F920F920FB612
:101D00000F9211242F933F934F935F936F937F9381
:101D10008F939F93AF93BF93CF93EF93FF93CFB7DF
:101D20000E94160ECFBF82E08BBBFF91EF91CF9147
:101D3000BF91AF919F918F917F916F915F914F91E3
:101D40003F912F910F900FBE0F901F9018951092FA
:101D5000C50087E68093C40088E18093C1008EE0CF
:101D60008093C200EAEFF4E08CE590E091878087F1
:101D700083E590E09387828783E0838315861486CA
:101D8000A2E2B5E01396FC93EE931297ED93FC93C9
:101D900040E061E080E00E9496000E94C608109238
:101DA000D8041092D7040E9445082B013C0181E021
:101DB00080930F010F2EF2E4FF2EF02D0DEDCAE5FA
:101DC000D4E0F8942A98FEBC00000DB407FEFDCFC5
:101DD0000EBD00000DB407FEFDCF2A9A78941EB503
:101DE0001F921F93DF93CF930E94E4109FEF21EE89
:101DF00084E0915020408040E1F700C000000F9047
:101E00000F900F900F901232E1F60E94C0030E94D3
:101E100057050F2EF4EF8F2E99249394F02D0F2E4B
:101E2000F0E9AF2EBB24B394F02D0F2EF5E0CF2EAA
:101E3000F02DE12CF12C09ED10E02091F10430910E
:101E4000F2044091F3045091F4046091F504709110
:101E5000F6048091F7049091F8040E94E0080F2E98
:101E6000F4EFEF2EFF24F394F02D00E911E0209120
:101E7000F1043091F2044091F3045091F404609124
:101E8000F5047091F6048091F7049091F8040E9493
:101E9000760963E283E00E94A80282E794E00E9450
:101EA00001118DE090E00E941C0281E994E00E9403
:101EB00001110E948C0C1092680078943B9A3C9A15
:101EC0003D9A529A539A11E0C8E6D0E002E00E948F
:101ED0004508DC01CB0184199509A609B709C09012
:101EE0000601D0900701E0900801F0900901C816A2
:101EF000D906EA06FB0630F410930F010E9445084C
:101F00002B013C0180910F01811105C08091D0040B
:101F1000811105C01FC08091D004882359F05A9ABE
:101F20009FEF23ED80E3915020408040E1F700C017
:101F300000005A988EE994E00E9401110E94500D11
:101F40008BEA94E00E9401111093CF0410920F01CC
:101F50001092D00444984598439A9FEF29EF80E06F
:101F6000915020408040E1F700C0000008839FEFBF
:101F700029E688E1915020408040E1F700C0000050
:101F800018824398A4CF0F931F93CF93DF9382308F
:101F9000910510F482E090E0E0912005F091210598
:101FA00020E030E0A0E0B0E0309719F140815181AD
:101FB0000281138148175907C8F08417950769F4FF
:101FC000109731F012960C93129713961C9327C01A
:101FD000009320051093210522C02115310519F029
:101FE0004217530718F49A01BD01EF01DF01F80110
:101FF000DBCF21153105F9F0281B390B24303105D1
:1020000080F48A819B816115710521F0FB01938326
:10201000828304C09093210580932005FE013296AF
:1020200044C0FE01E20FF31F8193919322503109C6
:10203000398328833AC020911E0530911F05232B38
:1020400041F4209102013091030130931F05209348
:102050001E0520910001309101012115310541F447
:102060002DB73EB74091040150910501241B350B5B
:10207000E0911E05F0911F05E217F307A0F42E1B57
:102080003F0B2817390778F0AC014E5F5F4F2417DC
:10209000350748F04E0F5F1F50931F0540931E05F4
:1020A0008193919302C0E0E0F0E0CF01DF91CF9106
:1020B0001F910F910895CF93DF93009709F481C08A
:1020C000FC01329713821282A0912005B091210564
:1020D000109781F420813181820F931F20911E057A
:1020E00030911F052817390751F5F0931F05E0932C
:1020F0001E0567C0ED0120E030E0CE17DF0740F499
:102100004A815B819E0141155105F1F0EA01F5CF4D
:10211000D383C28340815181840F951FC817D9078B
:1021200059F488819981840F951F02969183808349
:102130008A819B81938382832115310529F4F09351
:102140002105E09320053DC0E901FB83EA83499125
:102150005991C40FD51FEC17FD0761F4808191815F
:10216000840F951F0296E901998388838281938168
:102170009B838A83E0E0F0E012968D919C91139707
:10218000009719F0FD01DC01F7CF8D919C9111971B
:102190009D012E5F3F4F820F931F20911E053091AE
:1021A0001F052817390769F4309729F41092210583
:1021B0001092200502C013821282B0931F05A093D3
:1021C0001E05DF91CF910895A0E0B0E0EAEEF0E1C6
:1021D0000C94D213AE014B5F5F4FFA016191719184
:1021E000AF0180912405909125050E943111E2E014
:1021F0000C94EE1360912405709125050E9428131C
:1022000008950F931F93CF93DF93E0912405F091EE
:102210002505238121FF1BC08C01D0E0C0E0F8011F
:1022200081918F016091240570912505DB0118963D
:10223000ED91FC911997882331F00995892B79F359
:10224000DFEFCFEFECCF8AE00995892B19F08FEF04
:102250009FEF02C08D2F9C2FDF91CF911F910F9187
:102260000895ABE0B0E0E7E3F1E10C94C2136C0138
:102270007B018A01FC0117821682838181FFCCC118
:10228000CE0101963C01F6019381F70193FD859102
:1022900093FF81917F01882309F4BAC1853239F413
:1022A00093FD859193FF81917F01853229F4B601D9
:1022B00090E00E942813E7CF912C212C312CFFE1D4
:1022C000F315D8F08B3279F038F4803279F083321C
:1022D000A1F4232D20611DC08D3261F0803369F49B
:1022E000232D216016C0832D8260382EE32DE460FB
:1022F0003E2E2AC0F32DF8601DC037FC2DC020ED06
:10230000280F2A3040F08E32B9F436FC81C1232DDB
:102310002064322E19C036FE06C08AE0989E200D39
:102320001124922E11C0EAE02E9E200D1124222E9F
:10233000F32DF0623F2E08C08C3621F4832D806887
:10234000382E02C0883641F4F70193FD859193FF42
:1023500081917F018111B3CF982F9F7D9554933048
:1023600028F40C5F1F4F9FE399830DC0833631F033
:10237000833771F0833509F059C021C0F80180819D
:1023800089830E5F1F4F88248394912C530113C0BF
:102390002801F2E04F0E511CF801A080B18036FEFA
:1023A00003C0692D70E002C06FEF7FEFC5010E948E
:1023B0001D134C018201F32DFF773F2E16C028011B
:1023C00022E0420E511CF801A080B18036FE03C00D
:1023D000692D70E002C06FEF7FEFC5010E941213FC
:1023E0004C01F32DF0683F2E820133FC1BC0822D7F
:1023F00090E088169906B0F4B60180E290E00E9461
:1024000028132A94F4CFF50137FC859137FE81918A
:102410005F01B60190E00E94281321102A9421E068
:10242000821A91088114910471F7E8C0843611F082
:10243000893641F5F80137FE07C0608171818281DC
:1024400093810C5F1F4F08C060817181072E000CC3
:10245000880B990B0E5F1F4FF32DFF763F2E97FFD2
:1024600009C090958095709561957F4F8F4F9F4FD4
:10247000F0683F2E2AE030E0A3010E946413882E0A
:10248000861845C0853731F4232D2F7EB22E2AE0E1
:1024900030E025C0932D997FB92E8F36C1F018F406
:1024A000883579F0B5C0803719F0883721F0B0C091
:1024B000E92FE061BE2EB4FE0DC0FB2DF460BF2EEF
:1024C00009C034FE0AC0292F2660B22E06C028E0BB
:1024D00030E005C020E130E002C020E132E0F80148
:1024E000B7FE07C060817181828193810C5F1F4FAD
:1024F00006C06081718180E090E00E5F1F4FA301F4
:102500000E946413882E8618FB2DFF773F2E36FE1F
:102510000DC0232D2E7FA22E891458F434FE0BC03B
:1025200032FC09C0832D8E7EA82E05C0B82CA32CAA
:1025300003C0B82C01C0B92CA4FE0FC0FE01E80DE9
:10254000F11D8081803321F49A2D997EA92E09C036
:10255000A2FE06C0B394B39404C08A2D867809F015
:10256000B394A3FC11C0A0FE06C0B21488F4280CDA
:10257000922C9B180EC0B21460F4B60180E290E079
:102580000E942813B394F7CFB21418F42B1802C08A
:10259000982C212CA4FE10C0B60180E390E00E948C
:1025A0002813A2FE17C0A1FC03C088E790E002C078
:1025B00088E590E0B6010CC08A2D867859F0A1FE1E
:1025C00002C08BE201C080E2A7FC8DE2B60190E080
:1025D0000E942813891438F4B60180E390E00E9429
:1025E00028139A94F7CF8A94F301E80DF11D8081A6
:1025F000B60190E00E9428138110F5CF222009F443
:1026000042CEB60180E290E00E9428132A94F6CFD1
:10261000F6018681978102C08FEF9FEF2B96E2E152
:102620000C94DE13FC010590615070400110D8F746
:10263000809590958E0F9F1F0895FC01615070400A
:1026400001900110D8F7809590958E0F9F1F0895E7
:102650000F931F93CF93DF93FB01238121FD03C0D1
:102660008FEF9FEF2CC022FF16C046815781248137
:1026700035814217530744F4A081B1819D012F5F3A
:102680003F4F318320838C93268137812F5F3F4FCB
:102690003783268314C08B01EC01FB010084F18594
:1026A000E02D0995892BE1F6D80116968D919C9124
:1026B0001797019617969C938E931697CE01DF91EC
:1026C000CF911F910F910895FA01AA27283051F157
:1026D000203181F1E8946F936E7F6E5F7F4F8F4F53
:1026E0009F4FAF4FB1E03ED0B4E03CD0670F781FB2
:1026F000891F9A1FA11D680F791F8A1F911DA11D97
:102700006A0F711D811D911DA11D20D009F46894CF
:102710003F912AE0269F11243019305D3193DEF677
:10272000CF010895462F4770405D4193B3E00FD02D
:10273000C9F7F6CF462F4F70405D4A3318F0495D18
:1027400031FD4052419302D0A9F7EACFB4E0A695FB
:102750009795879577956795BA95C9F7009761051D
:10276000710508959B01AC010A2E06945795479573
:1027700037952795BA95C9F7620F731F841F951F68
:10278000A01D08952F923F924F925F926F927F9279
:102790008F929F92AF92BF92CF92DF92EF92FF9271
:1027A0000F931F93CF93DF93CDB7DEB7CA1BDB0B1D
:1027B0000FB6F894DEBF0FBECDBF09942A883988C2
:1027C00048885F846E847D848C849B84AA84B984C9
:1027D000C884DF80EE80FD800C811B81AA81B981D5
:1027E000CE0FD11D0FB6F894DEBF0FBECDBFED01E9
:0627F0000895F894FFCFEC
:1027F6000000280520000A00000097303030300124
:102806000600014552524F523A204572726F7220AD
:10281600636F6465203A2025640A004552524F5280
:102826003A204572726F7220636F6465203A2025E4
:102836003032782C204572726F72206D6573736129
:102846006765203A2025730A0053657474696E67BC
:1028560073206F662053505352203A202530327829
:102866000A0053657474696E6773206F662053504F
:102876004352203A20253032780A0043616E6E6F4B
:102886007420736574204C6F5261206D6F646520EF
:1028960066726F6D2046534B0043616E6E6F7420F7
:1028A6007365742076616C6964204649464F0073EF
:1028B60065742076616C6964207374617465207434
:1028C600696D6564206F7574006D6F64656D207643
:1028D600616C756573206E6F74206D6174686369D1
:1028E6006E67004C6F5261204D6F64656D20696E96
:1028F600697469616C697A6174696F6E2073746159
:10290600727465642E004D6F64656D205365747432
:10291600696E6773203A200042616E645769647479
:1029260068203A203132354B487A00436F64696E2D
:10293600672072617465203A20342F35004865613E
:10294600646572206D6F6465203A206578706C69E5
:10295600636974005061796C6F616420435243204F
:102966003A204F4E00737072656164696E67206627
:102976006163746F72203A203700545820636F6E7B
:1029860074696E756F7573206D6F6465203A204F9C
:10299600464600414743206175746F203A204F4EEA
:1029A600004C4E41204761696E20426F6F73742060
:1029B6003A204F464600436172726965722046723C
:1029C600657175656E6379203A203836384D487AD8
:1029D60000506F776572203A202D316442004C6FAB
:1029E600526120696E697469616C697A6174696F94
:1029F6006E2066696E697368656400466C6167730C
:102A0600204D61736B7320617265206E6F74206553
:102A16007175616C0043616E6E6F7420636C6561E5
:102A26007220616C6C20666C6167206D61736B73DC
:102A36000043616E6E6F742073657420616C6C2048
:102A4600666C616773005061636B65742053697AC5
:102A560065206C6172676572207468616E206D61B5
:102A66007820616C6C6F776564206C656E6774683E
:102A7600004572726F723A205061636B6574206311
:102A86006F72727570742E005761726E696E673A56
:102A9600204C656E677468204D69736D6174636858
:102AA600205761726E696E672E0041434B20736535
:102AB6006E742E005061636B6574204B65792052ED
:102AC6006571756573742073656E742E004B657938
:102AD600207265636569766564203A20004B6579E6
:102AE60020616363657074207061636B6574207325
:102AF600656E742E005061636B6574204163636577
:102B060070742041434B2072656365697665642E57
:102B1600000A456E7465722074686520706173736F
:102B260020636F6465203A20000A6B65792069731B
:102B360020636F72726563742E000A496E636F724A
:102B460072656374206B65792E004C6F7261277312
:102B56002076657273696F6E20697320253032782E
:102B66000A004C4E4120424F4F5354203A204F4EBC
:102B76002C204C4E41204741494E203A204D415889
:102B860000506F776572203A2031336442005570E9
:102B9600646174696E67206B65790052656164795A
:102BA60020746F2061757468656E746963617465FD
:0E2BB6002E003132333435363738395230453F
:00000001FF
